{
  "contractName": "DAO",
  "abi": [
    {
      "constant": true,
      "inputs": [],
      "name": "numOfTokenTransactions",
      "outputs": [
        {
          "name": "",
          "type": "uint256"
        }
      ],
      "payable": false,
      "stateMutability": "view",
      "type": "function"
    },
    {
      "constant": true,
      "inputs": [],
      "name": "owner",
      "outputs": [
        {
          "name": "",
          "type": "address"
        }
      ],
      "payable": false,
      "stateMutability": "view",
      "type": "function"
    },
    {
      "constant": true,
      "inputs": [],
      "name": "nonce",
      "outputs": [
        {
          "name": "",
          "type": "uint256"
        }
      ],
      "payable": false,
      "stateMutability": "view",
      "type": "function"
    },
    {
      "constant": true,
      "inputs": [],
      "name": "lottery",
      "outputs": [
        {
          "name": "",
          "type": "address"
        }
      ],
      "payable": false,
      "stateMutability": "view",
      "type": "function"
    },
    {
      "constant": true,
      "inputs": [
        {
          "name": "",
          "type": "uint256"
        }
      ],
      "name": "tokenTransactionHistory",
      "outputs": [
        {
          "name": "amount",
          "type": "uint256"
        },
        {
          "name": "receipient",
          "type": "address"
        },
        {
          "name": "sender",
          "type": "address"
        }
      ],
      "payable": false,
      "stateMutability": "view",
      "type": "function"
    },
    {
      "constant": true,
      "inputs": [],
      "name": "token",
      "outputs": [
        {
          "name": "",
          "type": "address"
        }
      ],
      "payable": false,
      "stateMutability": "view",
      "type": "function"
    },
    {
      "inputs": [
        {
          "name": "_lottery",
          "type": "address"
        },
        {
          "name": "_token",
          "type": "address"
        }
      ],
      "payable": false,
      "stateMutability": "nonpayable",
      "type": "constructor"
    },
    {
      "anonymous": false,
      "inputs": [
        {
          "indexed": true,
          "name": "_advertiser",
          "type": "address"
        },
        {
          "indexed": true,
          "name": "_winner",
          "type": "address"
        },
        {
          "indexed": false,
          "name": "pool",
          "type": "uint256"
        }
      ],
      "name": "LotteryWin",
      "type": "event"
    },
    {
      "anonymous": false,
      "inputs": [
        {
          "indexed": true,
          "name": "_advertiser",
          "type": "address"
        },
        {
          "indexed": true,
          "name": "_winner",
          "type": "address"
        }
      ],
      "name": "DrawWin",
      "type": "event"
    },
    {
      "constant": false,
      "inputs": [
        {
          "name": "_pool",
          "type": "uint256"
        },
        {
          "name": "_entrances",
          "type": "address[]"
        }
      ],
      "name": "runLottery",
      "outputs": [
        {
          "name": "",
          "type": "address"
        }
      ],
      "payable": false,
      "stateMutability": "nonpayable",
      "type": "function"
    },
    {
      "constant": false,
      "inputs": [
        {
          "name": "_advertiser",
          "type": "address"
        },
        {
          "name": "_approval",
          "type": "bool"
        }
      ],
      "name": "validateWinner",
      "outputs": [
        {
          "name": "",
          "type": "bool"
        }
      ],
      "payable": false,
      "stateMutability": "nonpayable",
      "type": "function"
    },
    {
      "constant": false,
      "inputs": [
        {
          "name": "_to",
          "type": "address"
        },
        {
          "name": "_amount",
          "type": "uint256"
        }
      ],
      "name": "transferTokens",
      "outputs": [],
      "payable": false,
      "stateMutability": "nonpayable",
      "type": "function"
    },
    {
      "constant": true,
      "inputs": [
        {
          "name": "_of",
          "type": "address"
        }
      ],
      "name": "getTokenBalance",
      "outputs": [
        {
          "name": "",
          "type": "uint256"
        }
      ],
      "payable": false,
      "stateMutability": "view",
      "type": "function"
    },
    {
      "constant": true,
      "inputs": [
        {
          "name": "_advertiser",
          "type": "address"
        }
      ],
      "name": "getLotteryPool",
      "outputs": [
        {
          "name": "",
          "type": "uint256"
        }
      ],
      "payable": false,
      "stateMutability": "view",
      "type": "function"
    },
    {
      "constant": true,
      "inputs": [
        {
          "name": "_advertiser",
          "type": "address"
        }
      ],
      "name": "getLotteryWinner",
      "outputs": [
        {
          "name": "",
          "type": "address"
        }
      ],
      "payable": false,
      "stateMutability": "view",
      "type": "function"
    }
  ],
  "bytecode": "0x608060405234801561001057600080fd5b506040516040806128f28339810180604052810190808051906020019092919080519060200190929190505050336000806101000a81548173ffffffffffffffffffffffffffffffffffffffff021916908373ffffffffffffffffffffffffffffffffffffffff16021790555081600460006101000a81548173ffffffffffffffffffffffffffffffffffffffff021916908373ffffffffffffffffffffffffffffffffffffffff16021790555080600360006101000a81548173ffffffffffffffffffffffffffffffffffffffff021916908373ffffffffffffffffffffffffffffffffffffffff160217905550600360009054906101000a900473ffffffffffffffffffffffffffffffffffffffff1673ffffffffffffffffffffffffffffffffffffffff16636637b882306040518263ffffffff167c0100000000000000000000000000000000000000000000000000000000028152600401808273ffffffffffffffffffffffffffffffffffffffff1673ffffffffffffffffffffffffffffffffffffffff168152602001915050600060405180830381600087803b1580156101bc57600080fd5b505af11580156101d0573d6000803e3d6000fd5b5050505060006002819055506000600681905550600060078190555050506126f5806101fd6000396000f3006080604052600436106100ba576000357c0100000000000000000000000000000000000000000000000000000000900463ffffffff1680630a135c17146100bf5780630c2b3d65146100ea5780633aecd0e31461019a5780638da5cb5b146101f1578063ab57900914610248578063affed0e01461029f578063b9ad86ab146102ca578063ba13a5721461034d578063bec3fa17146103a4578063c428a593146103f1578063e6a2d24814610458578063fc0c546a146104ff575b600080fd5b3480156100cb57600080fd5b506100d4610556565b6040518082815260200191505060405180910390f35b3480156100f657600080fd5b50610158600480360381019080803590602001909291908035906020019082018035906020019080806020026020016040519081016040528093929190818152602001838360200280828437820191505050505050919291929050505061055c565b604051808273ffffffffffffffffffffffffffffffffffffffff1673ffffffffffffffffffffffffffffffffffffffff16815260200191505060405180910390f35b3480156101a657600080fd5b506101db600480360381019080803573ffffffffffffffffffffffffffffffffffffffff169060200190929190505050610953565b6040518082815260200191505060405180910390f35b3480156101fd57600080fd5b50610206610a54565b604051808273ffffffffffffffffffffffffffffffffffffffff1673ffffffffffffffffffffffffffffffffffffffff16815260200191505060405180910390f35b34801561025457600080fd5b50610289600480360381019080803573ffffffffffffffffffffffffffffffffffffffff169060200190929190505050610a79565b6040518082815260200191505060405180910390f35b3480156102ab57600080fd5b506102b4610b7a565b6040518082815260200191505060405180910390f35b3480156102d657600080fd5b5061030b600480360381019080803573ffffffffffffffffffffffffffffffffffffffff169060200190929190505050610b80565b604051808273ffffffffffffffffffffffffffffffffffffffff1673ffffffffffffffffffffffffffffffffffffffff16815260200191505060405180910390f35b34801561035957600080fd5b50610362610c81565b604051808273ffffffffffffffffffffffffffffffffffffffff1673ffffffffffffffffffffffffffffffffffffffff16815260200191505060405180910390f35b3480156103b057600080fd5b506103ef600480360381019080803573ffffffffffffffffffffffffffffffffffffffff16906020019092919080359060200190929190505050610ca7565b005b3480156103fd57600080fd5b5061043e600480360381019080803573ffffffffffffffffffffffffffffffffffffffff169060200190929190803515159060200190929190505050610de6565b604051808215151515815260200191505060405180910390f35b34801561046457600080fd5b5061048360048036038101908080359060200190929190505050611fab565b604051808481526020018373ffffffffffffffffffffffffffffffffffffffff1673ffffffffffffffffffffffffffffffffffffffff1681526020018273ffffffffffffffffffffffffffffffffffffffff1673ffffffffffffffffffffffffffffffffffffffff168152602001935050505060405180910390f35b34801561050b57600080fd5b50610514612015565b604051808273ffffffffffffffffffffffffffffffffffffffff1673ffffffffffffffffffffffffffffffffffffffff16815260200191505060405180910390f35b60025481565b6000803390506020604051908101604052806000815250600560008373ffffffffffffffffffffffffffffffffffffffff1673ffffffffffffffffffffffffffffffffffffffff16815260200190815260200160002060008201518160000155905050600460009054906101000a900473ffffffffffffffffffffffffffffffffffffffff1673ffffffffffffffffffffffffffffffffffffffff1663cf37df258286866007546040518563ffffffff167c0100000000000000000000000000000000000000000000000000000000028152600401808573ffffffffffffffffffffffffffffffffffffffff1673ffffffffffffffffffffffffffffffffffffffff16815260200184815260200180602001838152602001828103825284818151815260200191508051906020019060200280838360005b838110156106af578082015181840152602081019050610694565b5050505090500195505050505050600060405180830381600087803b1580156106d757600080fd5b505af11580156106eb573d6000803e3d6000fd5b50505050600760008154809291906001019190505550600460009054906101000a900473ffffffffffffffffffffffffffffffffffffffff1673ffffffffffffffffffffffffffffffffffffffff1663b9ad86ab826040518263ffffffff167c0100000000000000000000000000000000000000000000000000000000028152600401808273ffffffffffffffffffffffffffffffffffffffff1673ffffffffffffffffffffffffffffffffffffffff168152602001915050602060405180830381600087803b1580156107be57600080fd5b505af11580156107d2573d6000803e3d6000fd5b505050506040513d60208110156107e857600080fd5b810190808051906020019092919050505073ffffffffffffffffffffffffffffffffffffffff168173ffffffffffffffffffffffffffffffffffffffff167ff422f60174ba7df807ca9eb58ec26f237febc51973a3267df692f568512be0e160405160405180910390a3600460009054906101000a900473ffffffffffffffffffffffffffffffffffffffff1673ffffffffffffffffffffffffffffffffffffffff1663b9ad86ab826040518263ffffffff167c0100000000000000000000000000000000000000000000000000000000028152600401808273ffffffffffffffffffffffffffffffffffffffff1673ffffffffffffffffffffffffffffffffffffffff168152602001915050602060405180830381600087803b15801561090f57600080fd5b505af1158015610923573d6000803e3d6000fd5b505050506040513d602081101561093957600080fd5b810190808051906020019092919050505091505092915050565b6000600360009054906101000a900473ffffffffffffffffffffffffffffffffffffffff1673ffffffffffffffffffffffffffffffffffffffff166370a08231836040518263ffffffff167c0100000000000000000000000000000000000000000000000000000000028152600401808273ffffffffffffffffffffffffffffffffffffffff1673ffffffffffffffffffffffffffffffffffffffff168152602001915050602060405180830381600087803b158015610a1257600080fd5b505af1158015610a26573d6000803e3d6000fd5b505050506040513d6020811015610a3c57600080fd5b81019080805190602001909291905050509050919050565b6000809054906101000a900473ffffffffffffffffffffffffffffffffffffffff1681565b6000600460009054906101000a900473ffffffffffffffffffffffffffffffffffffffff1673ffffffffffffffffffffffffffffffffffffffff1663ab579009836040518263ffffffff167c0100000000000000000000000000000000000000000000000000000000028152600401808273ffffffffffffffffffffffffffffffffffffffff1673ffffffffffffffffffffffffffffffffffffffff168152602001915050602060405180830381600087803b158015610b3857600080fd5b505af1158015610b4c573d6000803e3d6000fd5b505050506040513d6020811015610b6257600080fd5b81019080805190602001909291905050509050919050565b60075481565b6000600460009054906101000a900473ffffffffffffffffffffffffffffffffffffffff1673ffffffffffffffffffffffffffffffffffffffff1663b9ad86ab836040518263ffffffff167c0100000000000000000000000000000000000000000000000000000000028152600401808273ffffffffffffffffffffffffffffffffffffffff1673ffffffffffffffffffffffffffffffffffffffff168152602001915050602060405180830381600087803b158015610c3f57600080fd5b505af1158015610c53573d6000803e3d6000fd5b505050506040513d6020811015610c6957600080fd5b81019080805190602001909291905050509050919050565b600460009054906101000a900473ffffffffffffffffffffffffffffffffffffffff1681565b6000339050600360009054906101000a900473ffffffffffffffffffffffffffffffffffffffff1673ffffffffffffffffffffffffffffffffffffffff166323b872dd8285856040518463ffffffff167c0100000000000000000000000000000000000000000000000000000000028152600401808473ffffffffffffffffffffffffffffffffffffffff1673ffffffffffffffffffffffffffffffffffffffff1681526020018373ffffffffffffffffffffffffffffffffffffffff1673ffffffffffffffffffffffffffffffffffffffff1681526020018281526020019350505050602060405180830381600087803b158015610da557600080fd5b505af1158015610db9573d6000803e3d6000fd5b505050506040513d6020811015610dcf57600080fd5b810190808051906020019092919050505050505050565b6000806000806000806000339550600a600460009054906101000a900473ffffffffffffffffffffffffffffffffffffffff1673ffffffffffffffffffffffffffffffffffffffff1663ab5790098b6040518263ffffffff167c0100000000000000000000000000000000000000000000000000000000028152600401808273ffffffffffffffffffffffffffffffffffffffff1673ffffffffffffffffffffffffffffffffffffffff168152602001915050602060405180830381600087803b158015610eb357600080fd5b505af1158015610ec7573d6000803e3d6000fd5b505050506040513d6020811015610edd57600080fd5b8101908080519060200190929190505050811515610ef757fe5b049450600560008a73ffffffffffffffffffffffffffffffffffffffff1673ffffffffffffffffffffffffffffffffffffffff168152602001908152602001600020600101600080815260200190815260200160002060009054906101000a900473ffffffffffffffffffffffffffffffffffffffff169350600560008a73ffffffffffffffffffffffffffffffffffffffff1673ffffffffffffffffffffffffffffffffffffffff16815260200190815260200160002060010160006001815260200190815260200160002060009054906101000a900473ffffffffffffffffffffffffffffffffffffffff169250600560008a73ffffffffffffffffffffffffffffffffffffffff1673ffffffffffffffffffffffffffffffffffffffff16815260200190815260200160002060010160006002815260200190815260200160002060009054906101000a900473ffffffffffffffffffffffffffffffffffffffff1691508373ffffffffffffffffffffffffffffffffffffffff168673ffffffffffffffffffffffffffffffffffffffff16141580156110c657508273ffffffffffffffffffffffffffffffffffffffff168673ffffffffffffffffffffffffffffffffffffffff1614155b15156110d157600080fd5b846110db87610953565b101515156110e857600080fd5b600560008a73ffffffffffffffffffffffffffffffffffffffff1673ffffffffffffffffffffffffffffffffffffffff168152602001908152602001600020600001549050600281101515611e4f5785600560008b73ffffffffffffffffffffffffffffffffffffffff1673ffffffffffffffffffffffffffffffffffffffff168152602001908152602001600020600101600083815260200190815260200160002060006101000a81548173ffffffffffffffffffffffffffffffffffffffff021916908373ffffffffffffffffffffffffffffffffffffffff16021790555087600560008b73ffffffffffffffffffffffffffffffffffffffff1673ffffffffffffffffffffffffffffffffffffffff168152602001908152602001600020600201600083815260200190815260200160002060006101000a81548160ff021916908315150217905550600560008a73ffffffffffffffffffffffffffffffffffffffff1673ffffffffffffffffffffffffffffffffffffffff16815260200190815260200160002060000160008154809291906001019190505550600560008a73ffffffffffffffffffffffffffffffffffffffff1673ffffffffffffffffffffffffffffffffffffffff16815260200190815260200160002060020160006001815260200190815260200160002060009054906101000a900460ff161515600560008b73ffffffffffffffffffffffffffffffffffffffff1673ffffffffffffffffffffffffffffffffffffffff168152602001908152602001600020600201600080815260200190815260200160002060009054906101000a900460ff16151514151561193057600560008a73ffffffffffffffffffffffffffffffffffffffff1673ffffffffffffffffffffffffffffffffffffffff16815260200190815260200160002060020160006002815260200190815260200160002060009054906101000a900460ff161515600560008b73ffffffffffffffffffffffffffffffffffffffff1673ffffffffffffffffffffffffffffffffffffffff168152602001908152602001600020600201600080815260200190815260200160002060009054906101000a900460ff16151514156116a857600360009054906101000a900473ffffffffffffffffffffffffffffffffffffffff1673ffffffffffffffffffffffffffffffffffffffff166323b872dd848660028981151561146d57fe5b046040518463ffffffff167c0100000000000000000000000000000000000000000000000000000000028152600401808473ffffffffffffffffffffffffffffffffffffffff1673ffffffffffffffffffffffffffffffffffffffff1681526020018373ffffffffffffffffffffffffffffffffffffffff1673ffffffffffffffffffffffffffffffffffffffff1681526020018281526020019350505050602060405180830381600087803b15801561152657600080fd5b505af115801561153a573d6000803e3d6000fd5b505050506040513d602081101561155057600080fd5b810190808051906020019092919050505050600360009054906101000a900473ffffffffffffffffffffffffffffffffffffffff1673ffffffffffffffffffffffffffffffffffffffff166323b872dd84846002898115156115ae57fe5b046040518463ffffffff167c0100000000000000000000000000000000000000000000000000000000028152600401808473ffffffffffffffffffffffffffffffffffffffff1673ffffffffffffffffffffffffffffffffffffffff1681526020018373ffffffffffffffffffffffffffffffffffffffff1673ffffffffffffffffffffffffffffffffffffffff1681526020018281526020019350505050602060405180830381600087803b15801561166757600080fd5b505af115801561167b573d6000803e3d6000fd5b505050506040513d602081101561169157600080fd5b81019080805190602001909291905050505061192b565b600360009054906101000a900473ffffffffffffffffffffffffffffffffffffffff1673ffffffffffffffffffffffffffffffffffffffff166323b872dd85856002898115156116f457fe5b046040518463ffffffff167c0100000000000000000000000000000000000000000000000000000000028152600401808473ffffffffffffffffffffffffffffffffffffffff1673ffffffffffffffffffffffffffffffffffffffff1681526020018373ffffffffffffffffffffffffffffffffffffffff1673ffffffffffffffffffffffffffffffffffffffff1681526020018281526020019350505050602060405180830381600087803b1580156117ad57600080fd5b505af11580156117c1573d6000803e3d6000fd5b505050506040513d60208110156117d757600080fd5b810190808051906020019092919050505050600360009054906101000a900473ffffffffffffffffffffffffffffffffffffffff1673ffffffffffffffffffffffffffffffffffffffff166323b872dd858460028981151561183557fe5b046040518463ffffffff167c0100000000000000000000000000000000000000000000000000000000028152600401808473ffffffffffffffffffffffffffffffffffffffff1673ffffffffffffffffffffffffffffffffffffffff1681526020018373ffffffffffffffffffffffffffffffffffffffff1673ffffffffffffffffffffffffffffffffffffffff1681526020018281526020019350505050602060405180830381600087803b1580156118ee57600080fd5b505af1158015611902573d6000803e3d6000fd5b505050506040513d602081101561191857600080fd5b8101908080519060200190929190505050505b611c8f565b600560008a73ffffffffffffffffffffffffffffffffffffffff1673ffffffffffffffffffffffffffffffffffffffff16815260200190815260200160002060020160006002815260200190815260200160002060009054906101000a900460ff161515600560008b73ffffffffffffffffffffffffffffffffffffffff1673ffffffffffffffffffffffffffffffffffffffff168152602001908152602001600020600201600080815260200190815260200160002060009054906101000a900460ff1615151415611a0b57611a068961203b565b611c8e565b600360009054906101000a900473ffffffffffffffffffffffffffffffffffffffff1673ffffffffffffffffffffffffffffffffffffffff166323b872dd8385600289811515611a5757fe5b046040518463ffffffff167c0100000000000000000000000000000000000000000000000000000000028152600401808473ffffffffffffffffffffffffffffffffffffffff1673ffffffffffffffffffffffffffffffffffffffff1681526020018373ffffffffffffffffffffffffffffffffffffffff1673ffffffffffffffffffffffffffffffffffffffff1681526020018281526020019350505050602060405180830381600087803b158015611b1057600080fd5b505af1158015611b24573d6000803e3d6000fd5b505050506040513d6020811015611b3a57600080fd5b810190808051906020019092919050505050600360009054906101000a900473ffffffffffffffffffffffffffffffffffffffff1673ffffffffffffffffffffffffffffffffffffffff166323b872dd8386600289811515611b9857fe5b046040518463ffffffff167c0100000000000000000000000000000000000000000000000000000000028152600401808473ffffffffffffffffffffffffffffffffffffffff1673ffffffffffffffffffffffffffffffffffffffff1681526020018373ffffffffffffffffffffffffffffffffffffffff1673ffffffffffffffffffffffffffffffffffffffff1681526020018281526020019350505050602060405180830381600087803b158015611c5157600080fd5b505af1158015611c65573d6000803e3d6000fd5b505050506040513d6020811015611c7b57600080fd5b8101908080519060200190929190505050505b5b6000600560008b73ffffffffffffffffffffffffffffffffffffffff1673ffffffffffffffffffffffffffffffffffffffff168152602001908152602001600020600101600080815260200190815260200160002060006101000a81548173ffffffffffffffffffffffffffffffffffffffff021916908373ffffffffffffffffffffffffffffffffffffffff1602179055506000600560008b73ffffffffffffffffffffffffffffffffffffffff1673ffffffffffffffffffffffffffffffffffffffff16815260200190815260200160002060010160006001815260200190815260200160002060006101000a81548173ffffffffffffffffffffffffffffffffffffffff021916908373ffffffffffffffffffffffffffffffffffffffff1602179055506000600560008b73ffffffffffffffffffffffffffffffffffffffff1673ffffffffffffffffffffffffffffffffffffffff16815260200190815260200160002060010160006002815260200190815260200160002060006101000a81548173ffffffffffffffffffffffffffffffffffffffff021916908373ffffffffffffffffffffffffffffffffffffffff160217905550611f9f565b85600560008b73ffffffffffffffffffffffffffffffffffffffff1673ffffffffffffffffffffffffffffffffffffffff168152602001908152602001600020600101600083815260200190815260200160002060006101000a81548173ffffffffffffffffffffffffffffffffffffffff021916908373ffffffffffffffffffffffffffffffffffffffff16021790555087600560008b73ffffffffffffffffffffffffffffffffffffffff1673ffffffffffffffffffffffffffffffffffffffff168152602001908152602001600020600201600083815260200190815260200160002060006101000a81548160ff021916908315150217905550600560008a73ffffffffffffffffffffffffffffffffffffffff1673ffffffffffffffffffffffffffffffffffffffff168152602001908152602001600020600001600081548092919060010191905055505b50505050505092915050565b60016020528060005260406000206000915090508060000154908060010160009054906101000a900473ffffffffffffffffffffffffffffffffffffffff16908060020160009054906101000a900473ffffffffffffffffffffffffffffffffffffffff16905083565b600360009054906101000a900473ffffffffffffffffffffffffffffffffffffffff1681565b600080600460009054906101000a900473ffffffffffffffffffffffffffffffffffffffff1673ffffffffffffffffffffffffffffffffffffffff1663b9ad86ab846040518263ffffffff167c0100000000000000000000000000000000000000000000000000000000028152600401808273ffffffffffffffffffffffffffffffffffffffff1673ffffffffffffffffffffffffffffffffffffffff168152602001915050602060405180830381600087803b1580156120fb57600080fd5b505af115801561210f573d6000803e3d6000fd5b505050506040513d602081101561212557600080fd5b81019080805190602001909291905050509150600460009054906101000a900473ffffffffffffffffffffffffffffffffffffffff1673ffffffffffffffffffffffffffffffffffffffff1663ab579009846040518263ffffffff167c0100000000000000000000000000000000000000000000000000000000028152600401808273ffffffffffffffffffffffffffffffffffffffff1673ffffffffffffffffffffffffffffffffffffffff168152602001915050602060405180830381600087803b1580156121f557600080fd5b505af1158015612209573d6000803e3d6000fd5b505050506040513d602081101561221f57600080fd5b81019080805190602001909291905050509050600360009054906101000a900473ffffffffffffffffffffffffffffffffffffffff1673ffffffffffffffffffffffffffffffffffffffff166323b872dd8484846040518463ffffffff167c0100000000000000000000000000000000000000000000000000000000028152600401808473ffffffffffffffffffffffffffffffffffffffff1673ffffffffffffffffffffffffffffffffffffffff1681526020018373ffffffffffffffffffffffffffffffffffffffff1673ffffffffffffffffffffffffffffffffffffffff1681526020018281526020019350505050602060405180830381600087803b15801561232b57600080fd5b505af115801561233f573d6000803e3d6000fd5b505050506040513d602081101561235557600080fd5b8101908080519060200190929190505050506002600081548092919060010191905055506060604051908101604052808281526020018473ffffffffffffffffffffffffffffffffffffffff1681526020018373ffffffffffffffffffffffffffffffffffffffff168152506001600060025481526020019081526020016000206000820151816000015560208201518160010160006101000a81548173ffffffffffffffffffffffffffffffffffffffff021916908373ffffffffffffffffffffffffffffffffffffffff16021790555060408201518160020160006101000a81548173ffffffffffffffffffffffffffffffffffffffff021916908373ffffffffffffffffffffffffffffffffffffffff160217905550905050600460009054906101000a900473ffffffffffffffffffffffffffffffffffffffff1673ffffffffffffffffffffffffffffffffffffffff1663b9ad86ab846040518263ffffffff167c0100000000000000000000000000000000000000000000000000000000028152600401808273ffffffffffffffffffffffffffffffffffffffff1673ffffffffffffffffffffffffffffffffffffffff168152602001915050602060405180830381600087803b15801561252e57600080fd5b505af1158015612542573d6000803e3d6000fd5b505050506040513d602081101561255857600080fd5b810190808051906020019092919050505073ffffffffffffffffffffffffffffffffffffffff168373ffffffffffffffffffffffffffffffffffffffff167f9f21639fe8fab66c54783f0f43b568f18dc26d470f00729a015caafb4c479910600460009054906101000a900473ffffffffffffffffffffffffffffffffffffffff1673ffffffffffffffffffffffffffffffffffffffff1663ab579009876040518263ffffffff167c0100000000000000000000000000000000000000000000000000000000028152600401808273ffffffffffffffffffffffffffffffffffffffff1673ffffffffffffffffffffffffffffffffffffffff168152602001915050602060405180830381600087803b15801561267457600080fd5b505af1158015612688573d6000803e3d6000fd5b505050506040513d602081101561269e57600080fd5b81019080805190602001909291905050506040518082815260200191505060405180910390a35050505600a165627a7a723058202aa1b5114e47a93156115dc12d7d9ab8a9754ec002c48b07fa02db55c7c73fef0029",
  "source": "pragma solidity ^0.4.24;\nimport \"./Lottery.sol\";\nimport \"./Token.sol\";\n\ncontract DAO {\n\taddress public owner; //creator\n\n\t//history of all token exchanges\n\tmapping (uint => tokenTransaction) public tokenTransactionHistory;\n\tuint public numOfTokenTransactions;\n\n\tToken public token; //the token \n\tLottery public lottery; //the lottery\n\n\tmapping (address => winnerValidity) checkWinnerValidity; //lottery owner -> validty of winner\n\tuint numOfLotteries;\n\n\n\tuint public nonce; //for generating pseudorandom number\n\n\n\t//EVENT\n\tevent LotteryWin(address indexed _advertiser, address indexed _winner, uint pool);\n\tevent DrawWin(address indexed _advertiser, address indexed _winner);\n\n\tstruct tokenTransaction {\n\t\tuint amount;\n\t\taddress receipient;\n\t\taddress sender;\n\t}\n\n\tstruct winnerValidity {\n\t\tuint count;\n\t\tmapping(uint => address) validators;\n\t\tmapping(uint => bool) approvals;\n\n\t}\n\n\n\t//CONSTRUCTOR\n\tconstructor (address _lottery, address _token) public {\n\t\towner = msg.sender;\n\t\t\n\t\tlottery = Lottery(_lottery);\n\t\ttoken = Token(_token);\n\t\ttoken.setDao(this);\n\t\n\t\tnumOfTokenTransactions = 0;\n\t\tnumOfLotteries = 0;\n\t\tnonce = 0;\n\t}\n\n\n\n\n\t// run lottery (W/ CHANGES)\n\t//advertiser calls this function \n\t//returns winner of lottery \n\tfunction runLottery(uint256 _pool, address[] _entrances) public returns (address){\n\t\t//apply settings and run it\n\t\taddress advertiser = msg.sender;\n\t\tcheckWinnerValidity[advertiser] = winnerValidity(0); //reset count to zero, so that winner can be validated\n\t\tlottery.runLottery(advertiser, _pool, _entrances, nonce);\n\t\tnonce ++;\n\t\t//announce event\n\t\temit DrawWin(advertiser, lottery.getLotteryWinner(advertiser));\n\t\treturn lottery.getLotteryWinner(advertiser);\n\t}\n\n\n\n\t/**\n\t//stake\n\n\tthis function needs to be passed three times - 3 different validators need to all agree on either TRUE OR FALSE\n\t1) assume advertiser only owns 1 lottery \n\t2) validator gives either true or false\n\t3) majority always speaks truth\n\n\t\n\tTHE PROBLEM WITH THIS:\n\tmore gas fees are paid by the third validator\n\t*/\n\tfunction validateWinner(address _advertiser, bool _approval) public returns (bool) {\n\t\taddress thisValidator = msg.sender;\n\t\tuint256 stake = lottery.getLotteryPool(_advertiser)/10;\n\n\t\taddress zero = checkWinnerValidity[_advertiser].validators[0];\n\t\taddress one = checkWinnerValidity[_advertiser].validators[1];\n\t\taddress two = checkWinnerValidity[_advertiser].validators[2];\n\n\t\trequire (thisValidator != zero && thisValidator != one);\n\t\trequire(getTokenBalance(thisValidator) >= stake);\n\t\t\n\t\tuint count = checkWinnerValidity[_advertiser].count;\n\t\tif (count >= 2) { //if winner had been checked by 2 people\n\t\t\t//run for the last 3rd validator \n\t\t\tcheckWinnerValidity[_advertiser].validators[count] = thisValidator;\n\t\t\tcheckWinnerValidity[_advertiser].approvals[count] = _approval; \n\t\t\tcheckWinnerValidity[_advertiser].count ++;\n\n\t\t\tif (checkWinnerValidity[_advertiser].approvals[0] != checkWinnerValidity[_advertiser].approvals[1]) {//someone is in disagreement, \n\t\t\t\tif (checkWinnerValidity[_advertiser].approvals[0] == checkWinnerValidity[_advertiser].approvals[2]) { //1 lied\n\t\t\t\t\t//punish 1\n\t\t\t\t\ttoken.transferFrom(one, zero, stake/2);\n\t\t\t\t\ttoken.transferFrom(one, two, stake/2);\n\t\t\t\t}\n\t\t\t\telse { //0 lied\n\t\t\t\t\t//punish 0\n\t\t\t\t\ttoken.transferFrom(zero, one, stake/2);\n\t\t\t\t\ttoken.transferFrom(zero, two, stake/2);\n\t\t\t\t}\n\t\t\t}\n\n\t\t\telse {\n\t\t\t\tif (checkWinnerValidity[_advertiser].approvals[0] == checkWinnerValidity[_advertiser].approvals[2]) {//everyone in agreement\n\t\t\t\t\tsendTokensToWinner(_advertiser);\n\n\n\t\t\t\t}\n\t\t\t\telse {//2 lied\n\t\t\t\t\t//punish 2\n\t\t\t\t\ttoken.transferFrom(two, one, stake/2);\n\t\t\t\t\ttoken.transferFrom(two, zero, stake/2);\n\t\t\t\t}\n\t\t\t}\n\t\t\t//reset\n\t\t\tcheckWinnerValidity[_advertiser].validators[0] = 0x0;\n\t\t\tcheckWinnerValidity[_advertiser].validators[1] = 0x0;\n\t\t\tcheckWinnerValidity[_advertiser].validators[2] = 0x0;\n\t\t}\n\t\telse { \n\t\t\tcheckWinnerValidity[_advertiser].validators[count] = thisValidator;\n\t\t\tcheckWinnerValidity[_advertiser].approvals[count] = _approval; \n\t\t\tcheckWinnerValidity[_advertiser].count ++;\n\t\t}\n\n\t}\n\n\n\n\t//called after verifying winner of the lucky draw \n\t//this should only be called only after it passes 3 validations \n\tfunction sendTokensToWinner(address _advertiser) private {\n\t\t//contract owner (adveriser) sends promised award to winner (consumer)\n\t\t//now that this is a convfirned winner, record it. \n\t\taddress winner = lottery.getLotteryWinner(_advertiser);\n\t\tuint256 pool = lottery.getLotteryPool(_advertiser);\n\n\t\ttoken.transferFrom(_advertiser, winner, pool);\n\t\t\n\t\t//is this part even necessary\n\t\tnumOfTokenTransactions ++;\n\t\ttokenTransactionHistory[numOfTokenTransactions] = tokenTransaction(pool, _advertiser, winner);\n\n\t\t//event is announced to both advertiser and winner \n\t\temit LotteryWin(_advertiser, lottery.getLotteryWinner(_advertiser) , lottery.getLotteryPool(_advertiser));\n\n\t}\n\n\n\n\n\n\t//TOKEN EXCHANGE\n\tfunction transferTokens(address _to, uint256 _amount) public {\n\t\taddress from = msg.sender; //person calling this function\n \t\ttoken.transferFrom(from, _to, _amount); //transfer\n\t}\n\n\t//get token balance \n\tfunction getTokenBalance(address _of) public view returns (uint256) {\n\t\treturn token.balanceOf(_of);\n\t}\n\n\tfunction getLotteryPool(address _advertiser) public view returns (uint256) {\n\t\treturn lottery.getLotteryPool(_advertiser);\n\t}\n\tfunction getLotteryWinner(address _advertiser) public view returns (address) {\n\t\treturn lottery.getLotteryWinner(_advertiser);\n\t}\n\n\n\n}\n\n\n\n\n\n\n\n\n\n",
  "sourcePath": "/Users/lucyyu540/Documents/CryptoOracle/dapp/contracts/DAO.sol",
  "compiler": {
    "name": "solc",
    "version": "0.4.24+commit.e67f0147.Emscripten.clang"
  },
  "schemaVersion": "2.0.1",
  "updatedAt": "2018-07-30T17:19:46.055Z"
}