{
  "contractName": "Lottery",
  "abi": [
    {
      "inputs": [],
      "payable": false,
      "stateMutability": "nonpayable",
      "type": "constructor"
    },
    {
      "constant": false,
      "inputs": [
        {
          "name": "_advertiser",
          "type": "address"
        },
        {
          "name": "_pool",
          "type": "uint256"
        },
        {
          "name": "_entrances",
          "type": "address[]"
        },
        {
          "name": "_nonce",
          "type": "uint256"
        }
      ],
      "name": "runLottery",
      "outputs": [],
      "payable": false,
      "stateMutability": "nonpayable",
      "type": "function"
    },
    {
      "constant": false,
      "inputs": [
        {
          "name": "_advertiser",
          "type": "address"
        }
      ],
      "name": "getRandomNumber",
      "outputs": [
        {
          "name": "",
          "type": "uint256"
        }
      ],
      "payable": false,
      "stateMutability": "nonpayable",
      "type": "function"
    },
    {
      "constant": true,
      "inputs": [
        {
          "name": "_advertiser",
          "type": "address"
        }
      ],
      "name": "getLotteryWinner",
      "outputs": [
        {
          "name": "",
          "type": "address"
        }
      ],
      "payable": false,
      "stateMutability": "view",
      "type": "function"
    },
    {
      "constant": true,
      "inputs": [
        {
          "name": "_advertiser",
          "type": "address"
        }
      ],
      "name": "getLotteryPool",
      "outputs": [
        {
          "name": "",
          "type": "uint256"
        }
      ],
      "payable": false,
      "stateMutability": "view",
      "type": "function"
    }
  ],
  "bytecode": "0x608060405234801561001057600080fd5b50610633806100206000396000f300608060405260043610610062576000357c0100000000000000000000000000000000000000000000000000000000900463ffffffff1680633b6dde1314610067578063ab579009146100be578063b9ad86ab14610115578063cf37df2514610198575b600080fd5b34801561007357600080fd5b506100a8600480360381019080803573ffffffffffffffffffffffffffffffffffffffff169060200190929190505050610232565b6040518082815260200191505060405180910390f35b3480156100ca57600080fd5b506100ff600480360381019080803573ffffffffffffffffffffffffffffffffffffffff169060200190929190505050610296565b6040518082815260200191505060405180910390f35b34801561012157600080fd5b50610156600480360381019080803573ffffffffffffffffffffffffffffffffffffffff1690602001909291905050506102e1565b604051808273ffffffffffffffffffffffffffffffffffffffff1673ffffffffffffffffffffffffffffffffffffffff16815260200191505060405180910390f35b3480156101a457600080fd5b50610230600480360381019080803573ffffffffffffffffffffffffffffffffffffffff16906020019092919080359060200190929190803590602001908201803590602001908080602002602001604051908101604052809392919081815260200183836020028082843782019150505050505091929192908035906020019092919050505061034c565b005b60008060008060008573ffffffffffffffffffffffffffffffffffffffff1673ffffffffffffffffffffffffffffffffffffffff168152602001908152602001600020600101805490509150814281151561028957fe5b0690508092505050919050565b60008060008373ffffffffffffffffffffffffffffffffffffffff1673ffffffffffffffffffffffffffffffffffffffff168152602001908152602001600020600001549050919050565b60008060008373ffffffffffffffffffffffffffffffffffffffff1673ffffffffffffffffffffffffffffffffffffffff16815260200190815260200160002060020160009054906101000a900473ffffffffffffffffffffffffffffffffffffffff169050919050565b6000606060405190810160405280858152602001848152602001600073ffffffffffffffffffffffffffffffffffffffff168152506000808773ffffffffffffffffffffffffffffffffffffffff1673ffffffffffffffffffffffffffffffffffffffff1681526020019081526020016000206000820151816000015560208201518160010190805190602001906103e592919061053a565b5060408201518160020160006101000a81548173ffffffffffffffffffffffffffffffffffffffff021916908373ffffffffffffffffffffffffffffffffffffffff16021790555090505061043985610232565b90506000808673ffffffffffffffffffffffffffffffffffffffff1673ffffffffffffffffffffffffffffffffffffffff1681526020019081526020016000206001018181548110151561048957fe5b9060005260206000200160009054906101000a900473ffffffffffffffffffffffffffffffffffffffff166000808773ffffffffffffffffffffffffffffffffffffffff1673ffffffffffffffffffffffffffffffffffffffff16815260200190815260200160002060020160006101000a81548173ffffffffffffffffffffffffffffffffffffffff021916908373ffffffffffffffffffffffffffffffffffffffff1602179055505050505050565b8280548282559060005260206000209081019282156105b3579160200282015b828111156105b25782518260006101000a81548173ffffffffffffffffffffffffffffffffffffffff021916908373ffffffffffffffffffffffffffffffffffffffff1602179055509160200191906001019061055a565b5b5090506105c091906105c4565b5090565b61060491905b8082111561060057600081816101000a81549073ffffffffffffffffffffffffffffffffffffffff0219169055506001016105ca565b5090565b905600a165627a7a72305820e289ed4c8b0b7a1e39621f4e63b8c1af30bab9375d626852f1cb906e16d496d50029",
  "source": "pragma solidity ^0.4.24;\n\n\ncontract Lottery{ \n\tmapping (address => LotteryStruct) allLotteries;\n\n\tstruct LotteryStruct {\n\t\tuint256 pool;\n\t\taddress[] entrances;\n\t\taddress winner;\n\t}\n\n\t//CONSTRUCTOR\n\t//run lottery upon creation \n\tconstructor () public {\n\t}\n\n\n\t//Run lottery\n\tfunction runLottery(address _advertiser, uint256 _pool, address[] _entrances, uint _nonce) public {\n\t\t//set new lottey struct\n\t\tallLotteries[_advertiser] = LotteryStruct(_pool, _entrances, 0x0);\n\t\t//random number\n\t\t//uint luckyNumber = uint(keccak256(abi.encodePacked(_nonce)))%(allLotteries[_advertiser].entrances.length - 1);\n\t\tuint luckyNumber = getRandomNumber(_advertiser);\n\t\t//set winner\n\t\tallLotteries[_advertiser].winner = allLotteries[_advertiser].entrances[luckyNumber];\n\n\t}\n\n\tfunction getRandomNumber(address _advertiser) public returns(uint) {\n\t\tuint ceiling = allLotteries[_advertiser].entrances.length;\n\t\tuint luckyNumber = block.timestamp % ceiling;\n\t\treturn luckyNumber;\n\n\t}\n\n\n\t//getterfunctions\n\n\tfunction getLotteryWinner(address _advertiser) public view returns(address) {\n\t\treturn allLotteries[_advertiser].winner;\n\t}\n\tfunction getLotteryPool(address _advertiser) public view returns(uint256) {\n\t\treturn allLotteries[_advertiser].pool;\n\t}\n\n\n\n}\n",
  "sourcePath": "/Users/lucyyu540/Documents/CryptoOracle/dapp/contracts/Lottery.sol",
  "compiler": {
    "name": "solc",
    "version": "0.4.24+commit.e67f0147.Emscripten.clang"
  },
  "schemaVersion": "2.0.1",
  "updatedAt": "2018-07-30T17:19:46.061Z"
}